:020000001628C0
:0E0006008312031329088A00280882000800CC
:1000140003208A110A128000840AA80A0319A90A73
:08002400F003031D0A28080087
:10002C00013083120313A000A1010130A200A3012F
:10003C00A401A501A601A701831686018701031758
:10004C00890188011430831203138700283086003D
:10005C001A30FC00F830FD00FD0B3228FC0B322866
:10006C000000A0300602031C472800302706031DA1
:10007C00412801302606031D47280130A00000301E
:10008C00A100A03006020318542800302106031DDD
:10009C005128013020060319542865280608F00061
:1000AC00F00CF013700886001A30FC00F830FD00DC
:1000BC00FD0B5E28FC0B5E280000A601A7010608BC
:1000CC00053C031C752800302106031D6F280130E8
:1000DC002006031D75280130A6000030A700060875
:1000EC00053C0318822800302706031D7F280130A9
:1000FC0026060319822893280608F000F00D7010CC
:10010C00700886001A30FC00F830FD00FD0B8C28BE
:10011C00FC0B8C280000A001A101A0300602031CDE
:10012C00A32800302306031D9D2801302206031D41
:10013C00A3280130A4000030A500A030060203184B
:10014C00B02800302506031DAD2801302406031904
:10015C00B028C1280608F000F00CF01370088600D7
:10016C001A30FC00F830FD00FD0BBA28FC0BBA2845
:10017C000000A201A3010608053C031CD128003095
:10018C002506031DCB2801302406031DD128013080
:10019C00A2000030A3000608053C0318DE2800303E
:1001AC002306031DDB28013022060319DE28EF2865
:1001BC000608F000F00D7010700886001A30FC0074
:1001CC00F830FD00FD0BE828FC0BE8280000A4012A
:0601DC00A5013728F02800
:04400E00F22F000786
:00000001FF
